:081000006F20001DF8F802004A
:101008000000000000000000900000207602002090
:10101800A9BDF9F5940000200000000000000000C0
:10102800960000209800002000000000000000004A
:101038009A000020000000009C0000200000000032
:10104800C6040020E603002014040020A4000020A9
:10105800A6000020A8000020AA000020AC00002064
:10106800AE000020B0000020B200002018040020CC
:10107800F2020020B8000020BA000020BC000020C6
:10108800BE000020C0000020C2000020F4040020A0
:1010980001A001A001A001A001A001A001A001A040
:1010A80001A001A001A001A001A001A001A001A030
:1010B80001A001A001A001A001A001A001A001A020
:1010C80001A001A001A0B717004093067005238076
:1010D800D704130780FA2380E7040100010003C640
:1010E800B7041376F60DA385C70423800704137687
:1010F80005024DC203C6A700118A1DE22380D7044A
:101108002380E7040100010003C7A7001367470015
:101118002385E7009307004B01000100FD17EDFF51
:10112800B7170040930670052380D704130780FA89
:101138002380E704010001007D892394A7000100B2
:10114800010001000100238007042380D7042380C5
:10115800E704010001000100010037270040930661
:101168001005A303D78023800704B717004013078F
:1011780070052380E704130780FA2380E704010041
:10118800010003C7B70413670708A385E704238092
:10119800070482801376050441C603C6A700418A66
:1011A8001DE22380D7042380E7040100010003C760
:1011B800A700136707012385E7009307007D010057
:1011C8000100FD17EDFFB717004093067005238057
:1011D800D704130780FA2380E7040100010013767F
:1011E800F501136606042394C700010001000100FD
:1011F8000100238007042380D7041306600423809A
:10120800E7046318C500010001003727004089463C
:1012180089BF01000100372700409306200591B7D8
:101228002380D7042380E7040100010003D7870047
:101238001367070C2394E7000DBF4111814601464F
:101248008145114506C69D2EB71700401307700546
:101258002380E704130780FA2380E70401000100D4
:1012680003C76704136717002383E7042380070471
:10127800B2404101828081460146814511453D2E9B
:10128800B7170040930670052380D704130780FA28
:101298002380E704010001007D562396C7022380BE
:1012A800D7042380E7040100010003C7670413671C
:1012B80017002383E7042380070401A0BD473305F3
:1012C800F50201007D1575FD8280411122C426C2F8
:1012D80006C6AA84014463179400B240224492448B
:1012E8004101828005041305803E4204C13F4180CC
:1012F800DDB7B7170040130700032388E7028547C7
:1013080023AAF10873002030411122C426C206C660
:10131800371400409384818EEF005005A301040424
:10132800975000E0E78020FD65F9976000E0E780CE
:101338004072978000E0E780A01D09E5978000E0F3
:10134800E780206883C7040093F7F70FF1D7238459
:10135800018E977000E0E780803B977000E0E7809F
:10136800A03D5DBF4111054506C6974000E0E780F6
:10137800009013058004813B976000E0E78080704F
:10138800977000E0E780604A974000E0E78000300F
:10139800977000E0E7804043974000E0E780C04155
:1013A800975002E0E780C09F975000E0E7804089AF
:1013B80017E502E0130545C6975000E0E78040A90D
:1013C800977000E0E780403D0545974000E0E780E2
:1013D800809A974000E0E78000A10545974000E02B
:1013E800E780E09C1537B717004083D7C709918B72
:1013F80099CB856503C54182979000E0E78040F26C
:101408009547A388F188B71700401147239EE7083E
:10141800730020307300203037370040834747403F
:101428009946BD8B638DD702011122CE26CC4ACABC
:1014380031476389E7041147639DE700A301010071
:101448001D44B73400401389813483473100631C3D
:10145800F4007244E2445249056173002030834726
:1014680057407300203083C584404A85978000E048
:10147800E780E0A283473100850793F7F70FA301C0
:10148800F100E1B74800974000E0E78080A62A8491
:10149800A30101009384813483473100E30BF4FAFC
:1014A8008347310018082685BA9783C547FF978078
:1014B80000E0E780C09E83473100850793F7F70F68
:1014C800A301F100D1BF3727004083476700858B10
:1014D80085C385472303F70083C7818E8507238447
:1014E800F18E9387418C9C439387470623A2F18C06
:1014F80073002030B7170040A38107047300203021
:101508002303048015472303E48001002302A480F9
:10151800828083076480E3CE07FE230304808280F1
:1015280083076480E3CE07FE0345448082808307F7
:101538006480E3CE07FE2302A4808280411126C482
:101548004AC24EC006C61377F50BAD47AA892E8945
:1015580095446306F70019456537653F8D444E8508
:101568004537FD59FD1463983401B240A24412492D
:10157800824941018280135509011375F50F453FD2
:101588002209CDB7011126CC06CEB7040800513781
:101598001545BD37713769372AC6A53F3245937758
:1015A800150089EB136515001375F50FF240E24439
:1015B80005618280FD14E9FC0145CDBF397126DC47
:1015C8004ADA4ED852D656D45AD25ED006DE62CE09
:1015D80066CCB7E700E07D5783AA070022C603AAB6
:1015E800470023A0E71823A2E718B71700401307FE
:1015F80070052380E704130780FA2380E70483C774
:101608004704930B75FFB684E20793FBFB0F8546EF
:10161800AA892E8B328937240040E187015763FA63
:1016280076016308D5008946130700026313D500C5
:101638000157D98F93F7F70FB71C00402382FC049A
:1016480011472303E4801305F00F5D3D094CD135A4
:10165800636D7C11B7050700DA9537870700795560
:1016680063F2E504B3879500636EF702370B080051
:10167800A94733EB65016399F90689E48144513D33
:1016880026850DA0DA850945553D05090345F9FF6D
:10169800FD14050B693D81C49377FB0FFDF7DD351C
:1016A80069FD7D55B7170040130770052380E704CF
:1016B800130780FA2380E70403C74704418B23827A
:1016C800E704F250B7E700E023A0571123A247111F
:1016D800E25432445259C259325AA25A125B825BBE
:1016E800724CE24C21618280A5476395F9068569B1
:1016F8001309F00FB3069900B3742B01B69413497C
:10170800F9FFB3749900856B33796901416B93874D
:10171800F9FFB3F7270199E363FC340193D9490032
:10172800C147E3E637FF99BF0569C1697D19D9B794
:101738001305800D6388690113050002638479012C
:1017480013051008CA85DD3B353D21DD4E99B3846C
:101758003441D9B7DA852D45D533CA94E30099F2D7
:1017680005097D3BA30FA9FED5BF9387F9FF93F722
:10177800F70F6361FC0C83C71C0413073008631F51
:10178800F70437070800636BEB04B3079B00B70641
:10179800100063F5D704334BEB0089476393F906D0
:1017A8008980D549E38C04ECDA850945413B110968
:1017B8000327C9FF91472320E48003076480E34E91
:1017C80007FE23033481FD17EDFBFD14110B81C4C3
:1017D8009377FB0FE9FF7D3371F5E1B5B71700404B
:1017E80003C75704B70708001377070219E3B78739
:1017F80007007955E378FBEA33079B00E3FFE7F836
:1018080055B58547E382F9F2DA852D45053B93897D
:10181800F4FFE38504E6293393F7390091EB832637
:1018280004800327090093074900E39AE6E43E8908
:10183800CE84F1BFB5476396F9001305900BC93103
:1018480035BDB1471305B00AE38BF9FE994763919B
:10185800F904B7050800B365BB002D45C5318144BF
:101868008D4BA14975396396740183270480232021
:10187800F9008504E39834FF8327048013172B01AC
:10188800635507002312F900D5BB2322F900FDB3E5
:101898009D476399F90281451305B0044531BD445C
:1018A8002320090023220900FD599D3993F774006C
:1018B800CA9703C70700FD14398D2380A700E39654
:1018C80034FF6DBBA1476392F9046D398144630D00
:1018D8000B008D479304C0036308FB0093040005C5
:1018E80063048B01930440041375C507E30895D876
:1018F8001945393139390545213126850D390945CB
:101908003D314931E31C05D669BB91476399F9001C
:1019180013056006F536F53E130590090DB7E38FFC
:1019280009D4F154A9BB19CD91CD09CE814733878C
:10193800F500834607003307F50085072300D70025
:10194800E317F6FE828019C991C909CA910583A7D0
:10195800C5FF11057D16232EF5FEC5BF828001C97E
:1019680019C62A960505A30FB5FEE31DA6FE8280BB
:1019780081473307F5000307070019E33E85828096
:101988008507C5BF01112E8626CAAA84131506012C
:101998009305F004418122CC06CE32C6EF1040599F
:1019A8002A8401C53246A685BD3F2285F24062449D
:1019B800D24405618280854715C18DC105C2814722
:1019C800B306F5003387F50083C606000347070012
:1019D8006398E6008507E315F6FE85473E85828015
:1019E8008147EDBF9307F6FFBE952A966313C5009E
:1019F8008280FD1583C715000505A30FF5FEFDB709
:101A0800AA87014581CF09CE3E96850703C7F7FF10
:101A18006317B700E39BC7FE0545828082800145B6
:101A280082807971976700009387C70A22D4804320
:101A380006D626D24AD04ECE52CC56CA5AC85EC610
:101A480062C45DCC37C9C901814B176A0000130A0B
:101A5800EA0C97640000938424081309F937976AFD
:101A68000000938AEA01B709C0A8370B405783578B
:101A7800240095E35C44639D0B0017670000232B4B
:101A8800F704032CC4002285EF10A057628499A89C
:101A980023A6FB00FDB783270A008297838664018B
:101AA8001C4463DB06063307F5406367E90897675C
:101AB800000023AF07FC83552400034504009790DA
:101AC80000E0E780E0855C405844A9CF1444B6970D
:101AD8008386640163C5060063E33701DA971CC493
:101AE800A28B3A8449F497670000938767F99C4B67
:101AF80009476378F706F91717670000232AF7F8EC
:101B0800B250225492540259F249624AD24A424B84
:101B1800B24B224C45618280E377F5F83387F94070
:101B28002A9761B763970B009767000023A4E7FA29
:101B380089BF23A6EB00B1B7D85009CF63DF0600F1
:101B48003385A74083A70A016376F50097670000ED
:101B580023A0A7F4A28B404471B7E3F3A7FECE9766
:101B6800C5B79767000023A507F259BF411122C4E2
:101B7800176400001304C4F31C4006C626C24AC0FA
:101B880091C782979767000023A407F25C4091C32E
:101B980082971C406391071C9767000083C7D70F83
:101BA800858B9DC797670000A388070E17670000FD
:101BB8000347B70E954763FDE700EF0010379767B7
:101BC800000083C7970DF5178A07A2979C43829751
:101BD80017690000130909108347C900918B99C33D
:101BE800EF1060281C4491C3829797640000938487
:101BF80024EE984017660000034696E897670000B1
:101C080083C707E893961700BA9683D60600D5CA05
:101C18009767000083C7C7E663EFC70A97670000A6
:101C2800238007E61C40639807129767000083C764
:101C3800F70691CF9767000083C7370689EB976748
:101C48000000A38D070497E001E0E780E0079767AD
:101C580000009387A7EC9C43638F070EB707C0A8C3
:101C6800176700002326F7E26D3B9767000093870C
:101C7800A7E6DC53EDC317670000130767E0184BAE
:101C88009767000083C797E66367F70C176700003C
:101C98000347B700954763E0E70C8347C900918B7A
:101CA800DDEB90409766000083C696DD63CBD70ACC
:101CB8002244B240924402494101178300E0670080
:101CC8004343850793F7F70F97660000238AF6DAF0
:101CD800E3E6C7F235BF86073E9783550700231012
:101CE800070097670000239307DE97670000938734
:101CF800E7DB9C4317650000034585D813172500CB
:101D0800BA979C4382979767000083D727DC1767A9
:101D180000000347E7D693C7F7FF7D8D9317170099
:101D280098403E97835707005D8D2310A70097675B
:101D3800000083C7E7D491C7850717670000230110
:101D4800F7D4176700000347A7D39767000083C736
:101D580037D3E375F7ECB24022449244024941017B
:101D68008280139717003297035707006DF785078E
:101D780035BFAD6737C70040BD072326F7200F10D2
:101D88000000976700009387A7CFC84F832787264F
:101D9800BD66BD0693C7F7FF99836A052326D7203A
:101DA8005D8D82804111B7170040985F3AC6945FF5
:101DB8003247E39CE6FE3245410182808280032758
:101DC800851163000712411122C406C68347C50066
:101DD8008345C5042A8493F7C70F2306F500834675
:101DE80097000356C70013958601618563F1C508FE
:101DF800635A05060345870093F6F607A304D70040
:101E0800054693E627006314C50093E617002306EA
:101E1800D4005C4389075CC3A30AB40003250411FA
:101E28002E864C4309050136832784110346540145
:101E3800D44303D7C700B296118FD4C32396E700C3
:101E48008947A30DF400034744039767000083C73D
:101E5800C7C96378F7048347C40093E707012306DB
:101E6800F40081A093E717002306F40075B7937672
:101E7800F60F635D050203458700854513E62700D5
:101E88006314B50013E617002306C400A30AD400A0
:101E9800A30407008547A30DF400832784119C43FE
:101EA800DDF3B240224401454101828093E71700E7
:101EB8002306F400A30AD400A30407000325041191
:101EC8004C4309058D348327841103465401D443B8
:101ED80003D7C700B296118FD4C32396E7008D4766
:101EE8005DBF0545828097670000938727D99C438B
:101EF800411122C406C6858B2A84C5EF41651305A6
:101F080025F5978001E0E78080EF45C58347A50068
:101F18002315F50083270412BDE72320A4122322EA
:101F2800A41285472310F404232005008347640185
:101F380054412316F5000347D4002304E500054760
:101F4800A304E500176700001307C7D4184F1385CB
:101F5800170215811C437D151375F50F9CC25C4350
:101F6800DCC21C479CC65C47DCC61C4B9CCA5C4B4D
:101F7800DCCA1C4F9CCE5C4FDCCE19CD9386060282
:101F880013070702C1BF8327441288C38357040479
:101F98002322A412850779B79767000083D707DD46
:101FA8008507176700002313F7DCB240224441017C
:101FB80082808347C40023090400054593C747006E
:101FC8002306F400DDB78347850193F7E70FD5EFC4
:101FD80083479501DDEB034625018346C50009CA01
:101FE8008345450317670000034737B063E7E500FB
:101FF80013F7060141CF014709C6C18A0357651C7B
:1020080081C68356A51C369751C31307C712176597
:102018000000035565A9B335A70237460F004111E3
:1020280013060624814622C426C206C67D543305FB
:10203800A702978002E0E780800F9767000083C7B8
:1020480037ABB384A700976700009387A7D103A78E
:1020580007098327070963F387003E84184375FB44
:1020680097670000938787AB9C4382978147636497
:10207800A400B307A440B2402244B3B7970093C763
:10208800170092443E854101828081473E858280C7
:10209800797126D206D622D44AD04ECE52CC56CA10
:1020A8005AC85EC68347350303447513AA843E9411
:1020B8001374F40F9307400263F687001304B4FD0A
:1020C8001374F40F03AA841383AAC413A38B841272
:1020D80022865285D685978002E0E780C0FF058971
:1020E80015E503CBD41201498149337B6403930B73
:1020F80050024A865285D685978002E0E780A0FD87
:10210800058915C5639169031374F90F238B84122C
:10211800B250225492540259F249624AD24A424B6E
:10212800B24B456182808509E20993D98941050945
:10213800E31179FDE1BF832785090356E50379712A
:1021480093D60701BD8EC206C182358E13577640DD
:1021580093575640898B058B5D8F93573640918BEB
:102168005D8F93571640A18B5D8F93171600C18B17
:102178005D8F9317360093F707025D8F931756000C
:102188009355860093F707041E065D8F1376F60FA6
:10219800518F93D7554013D63540118A898BD18FEB
:1021A80013D67540D18F13D61540218AD18F139637
:1021B8001500418AD18F1396350013760602D18F08
:1021C80013965500137606049E05D18F93F5F50FE7
:1021D800CD8FA20745465D8F3307C70222D42A84D4
:1021E80026D252CC56CA032A8413832AC4135AC847
:1021F80006D6369742074183935777401355574081
:102208000989858BC98F135537401189C98F135593
:1022180017402189C98F131517004189C98F1315D4
:10222800370013750502C98F13155700935587009A
:10223800137505041E07C98F1377F70FD98F13D5A8
:10224800354013D755401189098B498F13D57540EF
:10225800498F13D515402189498F13951500418958
:10226800498F1395350013750502498F139555004D
:10227800137505049E05498F93F5F50F4D8F2207B9
:10228800D98FB387C7024AD04ECE5EC662C4B6970E
:10229800C207C18313D7774013D557400989058BE7
:1022A800498F13D537401189498F13D51740218994
:1022B800498F139517004189498F13953700137576
:1022C8000502498F1395570093D5870013750504A8
:1022D8009E07498F93F7F70FD98F13D5354013D73A
:1022E80055401189098B498F13D57540498F13D5EE
:1022F80015402189498F139515004189498F1395F8
:10230800350013750502498F13955500137505049B
:102318009E05498F93F5F50F4D8F2207D98FB38707
:10232800C702130650025285D685B697BD8E939480
:102338000601C18033F6C402137BF60F978002E0D2
:10234800E78060D905890DED8347D4120149814999
:10235800B3849702130C5002C1804A865285D685F1
:10236800978002E0E78020D70589937BF90F11C594
:1023780063863403850993F9F90F0509E31F89FD7D
:10238800230B6413B250225492540259F249624A00
:10239800D24A424BB24B224C456182805E8BCDB70C
:1023A8000111976700009387E79B22CC03A4470B92
:1023B80026CA06CE2AC42EC6854419E40145F24031
:1023C8006244D24405618280834791000347140028
:1023D800858B6304F7000044CDB719469305A10027
:1023E80013052400EFF02FDDE31795FE0545C1BF67
:1023F800011122CC176400001304848B18402AC6EC
:102408002EC432C206CE3C4B93F7F7F73CCB97E08D
:1024180001E0E7802088184097660000938686864A
:102428003C4B93E707083CCB9C423245A24523A08E
:102438000700034715000348250022074208429772
:10244800034805004297034835006208429798D729
:10245800034755000348650022074208429703488E
:10246800450042970348750062084297D8D703474A
:1024780095000348A50022074208429703488500B3
:1024880042970348B5006208429798DB0347D50096
:102498000348E5002207420842970348C500034560
:1024A800F500429762052A97D8DB03C7150003C5D4
:1024B8002500220742052A9703C505002A9703C568
:1024C800350062052A9798CF03C7550003C56500F4
:1024D800220742052A9703C545002A9703C57500B8
:1024E80062052A97D8CF03C7950003C5A500220720
:1024F80042052A9703C585002A9703C5B5006205DA
:102508002A9798D303C7D50003C5E50022074205DB
:102518002A9703C5C50083C5F5002A97E2052E97BB
:10252800D8D3D843759BD8C3D84313671700D8C3EB
:1025380098431367170098C3124698425C43858BEB
:10254800D1E71C4F01452300F6009C429C4FA18314
:10255800A300F6009C429C4FC1832301F6009C42D5
:102568009C4FE183A301F6009C42D84F2302E6006A
:10257800D84F2183A302E600D84F41832303E60006
:10258800D84F6183A303E60098532304E6009853C9
:102598002183A304E600985341832305E60098535A
:1025A8006183A305E600D8532306E600D8532183A8
:1025B800A306E600D85341832307E600DC53E183F2
:1025C800A307F600F2406244056182800100B5B7B6
:1025D800175700001307476B1443411122C49C5E30
:1025E8004AC006C6998326C2858B3A8417590000CB
:1025F80013094969D1CB9C5E975400009384846980
:1026080093F7F7F99CDE175700000347076993070C
:102618000008631BF700832709009C4393F707040E
:1026280017570000230BF76683C7040093F70704C6
:102638009DC3975700009387674E9C43829797578F
:10264800000023A1A76683C7040093F7F70B175769
:1026580000002301F76483C7440093F707048DE75C
:10266800854717570000A309F7629757000093871B
:1026780027649C43096798C7130700FC9756000016
:10268800238CE660D844F8D31C40985F1183058BEF
:1026980009CB985F3D9B98DF054797560000238D2F
:1026A800E65E985F1D83058B11CB985F1377F7F76C
:1026B80098DF8547175700002300F75E8327090036
:1026C800D8430583058B19C7D843759BD8C3D8430E
:1026D800799BD8C3B2402244924402494101828086
:1026E800397106DE16DC1ADA1ED82AD62ED432D272
:1026F80036D03ACE3ECC42CA46C872C676C47AC2F2
:102708007EC0F935F250E2525253C2533255A255A7
:10271800125682567247E2475248C248324EA24E7B
:10272800124F824F21617300203097570000938722
:1027380027589443975700009387C75503C7070046
:10274800058B11CB97570000238807549757000033
:10275800A3840754828003C71700058B65F7F852D6
:1027680071FF83C75700DDB7175800001308C85119
:10277800032708001C5F9583858BD1E709C61C5B7E
:10278800BD832300F60085CA83270800985B4607A7
:10279800935767016356070093E707C0C207C183D1
:1027A80003970600C207C18709C7BA970947B3C785
:1027B800E7022390F60085CD834715008DCB975609
:1027C800000083C6864D93F6060413879700894751
:1027D8008DCA3A9503470500854699471376F7064B
:1027E8006311D60262076187B947634C07008327E4
:1027F80008009C5FED838D8B17570000A301F74AF3
:1028080081473E8582808547EDBF411122C406C6B7
:10281800175400001304C449184049E9AE8774539B
:10282800FDFE3E85B285975700002386074697D060
:1028380001E0E780201C975700009387E7449C43FA
:10284800B70680009843558F98C3D857719BD8D73F
:1028580097570000A382074497570000A38C0742AC
:102868001C40094798C3B7F700E003A707D16D9B41
:1028780023A8E7D003A707D15D9B23A8E7D073005F
:1028880050101440175700001307C740834727000C
:10289800858B89EB83473700858BD9C7975700000D
:1028A800238C073EB2402244410182808D47631049
:1028B800F502975700009387273D9C43B706800091
:1028C8009843558F98C3D857719BD8D75DBF854714
:1028D800E319F5FAB567BD075CC70F1000001C4087
:1028E8000967094698C7130700F89756000023851B
:1028F800E63A1757000013072739144398423183E3
:102908000D8B6319C7001307E043F8D33D673D07F4
:10291800D8C785BF984231830D8B01E7130760192B
:10292800EDB71307E01BD5B7FC52ADF3A5BF5D713A
:1029380052DC175A0000130A2A3503270A0086C6F4
:10294800A2C4A6C2CAC04EDE1C4397590000938990
:10295800E93A175900001309A93593F7F7E793E700
:1029680007081CC383A609003707CEFF7D179C46BE
:10297800130680022A84F98F9CC68327090013074F
:1029880000082800B8CBAE8493051008EFE03FFD9F
:1029980097D001E0E780003097D001E0E780003D64
:1029A80083270A009376F41F370FFCFF23A4070040
:1029B800984B4E88CA881367F70398CBF84F1305CE
:1029C80010F8D285137707E0558FF8CF9843F5763E
:1029D800FD16758F98C39843B7063300B7020400F5
:1029E8001377F7E798C398439303401F7D1F137726
:1029F800F7E71367071098C303A70900930F80022E
:102A080085491C47D58F1CC7832709001307900DDC
:102A18003400B8CB11490147135337002693834735
:102A2800030013767700B3D7C740858BDDCF9C4171
:102A3800832E0800239C07042390070603AECE02CA
:102A4800137EDEFF23A6CE0383AE0700137EF707AF
:102A580093FE0EF833EECE0123A0C70103AE470262
:102A6800336E5E0023A2C70383AE0800014E23A283
:102A78007E0603DA070663074E0303AE0703038ADD
:102A88000600135EFE00620E135E8E416358CA0193
:102A980003AE0703135EFE002380C60103DE0706AC
:102AA800137EFE0F03AA4E0663060A0003DA8705A3
:102AB800E37F49FB03AE4702337EEE0123A2C7033F
:102AC80083870600635CF400034E03003396C90055
:102AD8001346F6FF3376C6012300C3003E8663D350
:102AE800A7002A8613158601618505071377F70F56
:102AF8008506E313F7F3B640264496440649F2598F
:102B0800625A61618280975600009386661A9C42D9
:102B1800D84713161701635506029847131617016D
:102B2800635006027D57B8D717570000130747F5BB
:102B3800584F0507175600002322E6F6116798C775
:102B480098470D83058B1DC3175700000347A7142B
:102B58001367170017560000230FE612130700F833
:102B680017560000230AE612214798C79847058B95
:102B780009CF175700000347F711136717001756B7
:102B88000000A309E610054798C798470983058BF5
:102B980009E798470583058B31CF984717560000FA
:102BA8001306460F175500001305050E0983058BFC
:102BB800630307101841184331830D8B75EBAC4B39
:102BC800184E93F5050203471700CDCD79EF13078B
:102BD8007006D8CF03470600136717001756000082
:102BE800230AE60A114798C718415C57F19B93E7F7
:102BF80017005CD79C4298479316370163D60602A4
:102C08009756000083C6461DC18A17570000130750
:102C18006715C5CE03474707136707029756000095
:102C2800238CE61A056798C798479316270163D13E
:102C38000602175700000347270662076187635794
:102C480007000547975600002388E604096798C7D8
:102C580098479316070163D606029756000083C665
:102C6800B617858A175700001307C70FADCE03475D
:102C780057071367270097560000A38FE6142167AC
:102C880098C7828029D785456315B7001307B00612
:102C980089B789456315B7001307F0061DBF8D4531
:102CA8006315B700130730072DB71307500715B77B
:102CB8001307600739BF0347360013671700175615
:102CC8000000A30AE6FC094739BF834647070946BF
:102CD800BD8A6388C600034747078D463D8BE313CB
:102CE800D7F4114725BF83465707918AC9DA0347A6
:102CF80057071367870041B7397106DE16DC1ADA01
:102D08001ED82AD62ED432D236D03ACE3ECC42CA9B
:102D180046C872C676C47AC27EC0F533F250E25213
:102D28005253C2533255A255125682567247E24741
:102D38005248C248324EA24E124F824F2161730050
:102D48002030175700001307E7F68346B701975757
:102D5800000083C7F7F84C4BB697FD8B33D7F500C7
:102D680097560000A388F6F497560000A38AF6F653
:102D7800058B15EF175700000347D7F6B3F7E7029F
:102D8800814601471305000233D6E500058A13780A
:102D9800F70F19CA6397D70097570000A38C07F15C
:102DA8008280850693F6F60F0507E31FA7FC82804D
:102DB80097570000938787D69C43011122CC4EC6B3
:102DC80006CE26CA4AC852C456C2829797570000F0
:102DD800938747F0804781496305A406BE849757C7
:102DE8000000938767CF038767013E89635507060D
:102DF800018D135455009757000083C747ED937909
:102E0800F501636DF402370AC0A8B70A4057153FA9
:102E18009C449756000083C686EB139756003E974E
:102E280083076901158C63C50700636347015697DB
:102E38009757000023A4E7EAE37BD4FC1604B369A0
:102E48003401F24062444E85D2444249B249224A92
:102E5800924A05618280E37D85F8B707C0A833846C
:102E68008740229579B797570000938727CB9C43D3
:102E7800411122C406C626C282979757000093873D
:102E880067E580476309A406BE84975700009387C7
:102E9800A7C48387670163D80704018D13545500BD
:102EA8009757000083C7A7E26367F404593D984425
:102EB8009757000083C7A7E19396570036971D8C54
:102EC8009756000023ACE6E0E372F4FE2244B240D9
:102ED8009244175500000345F5DD8145410117D39C
:102EE80001E06700C32FE37A85FAB707C0A83384E7
:102EF8008740229565B7B2402244924441018280BE
:102F080097570000938787DF9843B7570200938746
:102F1800079F8326070913965600635806008326E1
:102F280007091396660063440600FD17FDF38280C7
:102F380071C5AA870145E9C58D07C207C183F19B01
:102F4800C207C18313074003636FF70217570000D6
:102F58001307C7E00843175700001307A7DF1443F8
:102F68006398A60217570000130707B7185B0145B7
:102F780041CB4111C20706C60545DD8D0297B24017
:102F8800014541018280175700001307E7DCD9B7D4
:102F98000357650035E303574500636FF704B3062D
:102FA800F7402146637CD6020328050093868700F4
:102FB8001D8FAA966117175600000356C6AC2392B8
:102FC800E60023A006012393060014C12312F5008E
:102FD800130786FF975600002397E6AA2313B50028
:102FE8009755000083D525AAB387F54017570000E9
:102FF800231BF7A82105828008419DB701458280DF
:1030080082800DC197570000938747D503A3070017
:1030180097570000938707D483A8070081469A87AB
:1030280063E31701828003A80700636DF50A636BE9
:10303800A80A13878700E367E5FE03D667002167C0
:1030480005076317E60003C7C1970507238EE196B6
:10305800975500009385C5A203D6470003D765009E
:103068002393070032974207418317550000231C1A
:10307800E5A0638A6702175500001305E5CD0841EE
:103088006303F50203D5660019ED83D7460023A034
:10309800060121073E9621062392C6009757000095
:1030A8002393E79EB6879843E30E17F797560000D9
:1030B800938686CA9442E307D7F683566700BDF223
:1030C80083D64700035647001843A106B2962392B9
:1030D800D70098C383D76500A107175700002314AA
:1030E800F79A8280BE86C28725BF011197570000D4
:1030F800938747C722CC03A4C70B26CA4AC84EC623
:1031080006CEAA8413092500854915C083C7140073
:1031180003473400858B6304F700405CFDB719460C
:10312800930544004A85EFE01F89E31835FF22859F
:10313800F2406244D2444249B24905618280411159
:1031480097570000938707C222C403A4C70B26C25F
:103158004AC006C693042500054901E82285B24005
:1031680022449244024941018280A6851305A402A3
:10317800977002E0E78060ABE30225FF405CF1BF97
:103188004111975700009387E7BD22C403A4C70BDA
:1031980026C24AC006C693042500054901E82285CF
:1031A800B24022449244024941018280A685130517
:1031B800A401977002E0E78040A7E30225FF405C86
:0431C800F1BF000053
:1031D00097010020938101F617510020130181E22D
:1031E00017E5FFFF130585E297D5FF1F938585E15E
:1031F00017F6FF1F130646FD63FAC500832205007C
:1032000023A0550011059105E3EAC5FE17C502008C
:103210001305C57297F5FF1F938505FB13868187FC
:1032200063FAC5008322050023A05500110591050E
:10323000E3EAC5FE1385818797450020938585C401
:103240006377B500232005001105E36DB5FEFD424F
:10325000739002BC8D4273904280B722000093822B
:10326000828873A0023097D2FF1F9382A2D993E283
:1032700032007390523097D2FF1F9382E20E739008
:103280001234730020303D432A876373C30293775F
:10329000F700BDEFADE5937606FF3D8ABA960CC305
:1032A0004CC30CC74CC74107E36BD7FE11E28280C9
:1032B000B306C3408A069702000096966780A60070
:1032C0002307B700A306B7002306B700A305B7007E
:1032D0002305B700A304B7002304B700A303B70076
:1032E0002303B700A302B7002302B700A301B7006E
:1032F0002301B700A300B7002300B700828093F535
:10330000F50F93968500D58D93960501D58D61B700
:10331000939627009702000096968682E78086FAA9
:103320009680C1171D8F3E96E374C3F8A5B7B717F3
:10333000004003C777051A0592054D8D1377E70FF7
:1033400013653500A38BE7041375F50FA38CA70451
:103350008280B717004003C777051377E70FA38B69
:10336000E704130700F8A38DE7043D47238CE70427
:1033700013075003A38CE70482800547B71700406A
:10338000238DE704371700408347A705858BEDFFA2
:103390000355C70552055181828041112A83014E90
:1033A000930E407E130F0019930F400663E46E0ED8
:1033B0009308001913034006B3781503854E0D4F8B
:1033C000A14F337365020D891335150063EEBE0EF0
:1033D0001308F6FF7946729842081358080133071C
:1033E000C70213D61700BE0732976146B3F6C6026E
:1033F00013068070B386C6023697A166F58F420722
:103400005D8FB716004083C7F60293F70708A3073E
:10341000F1000346F10083C7F60293F70708E3942F
:10342000C7FE8347F100B716004093F7F70FFDC7BB
:10343000B7170040930670052380D704930680FADF
:103440002380D7040100010023AA070383C61703C2
:1034500011667D1693E60608A388D702D45BC85F81
:1034600093854703A98EF18EF5FA930670052380A4
:10347000D704930680FA2380D7040100010098C185
:1034800003C7170313670704A388E7022380070411
:10349000410182807D133368E3039308E016630ED5
:1034A00008003368F3039308D01663080800937884
:1034B000330093B818009388D81633081E01131EE2
:1034C0000801135E0E01DDB56393E50305486386CD
:1034D00008000148630303002A8871087298FD15EB
:1034E000131E0801C205135E0E01C181C5B513F894
:1034F000150063F4BF007908D5B713381800E5BF8D
:1035000083C7F60293F70708A307F1000346F1000B
:1035100083C7F60293F70708E394C7FE8347F100D9
:1035200093F7F70FF1DF29B74111B7170040985F04
:103530003AC6945F3247E39CE6FE32454101828001
:103540001D71D2C45EDE86CEA2CCA6CACAC8CEC6C3
:10355000D6C2DAC062DC66DA6AD86ED6AA8B752764
:10356000B7170040930670052380D704130780FA2D
:103570002A8A2380E7040100010003C6F7021366CC
:103580008600A387C70203C6F7021376760FA387C8
:10359000C7022380D7042380E7040100010003C68B
:1035A000E7021376C60F2387C70203C6E702136636
:1035B00016002387C7022380D7042380E704010075
:1035C00001001309803E33492503930A007D9304CB
:1035D00080C103C7370593095002130BA00413776A
:1035E000870FA389E70403C7370537140040116C20
:1035F00013671700A389E704A167930D0404130D53
:1036000080FAE17C7D1CB30A5903B344950233C7A9
:10361000FA02916AB38434033AC6B309390333C753
:10362000F40293047005B3C7F9023AC88149330B19
:1036300069033ECABD67938707A6B347FB02094BE0
:103640003ECC930770052380FD002380AD0101006F
:1036500001008347340593E70702A309F404835765
:103660000405B3E757012318F40483570405B3E7AF
:103670009701C207C1832318F4048347340593F7E5
:103680000702E5C30347340593073405218B7DDB2F
:1036900023809D002380AD010100010003C70700C6
:1036A0001377F70D2380E70003C7070013670702AE
:1036B0002380E70083570405B3E757012318F40478
:1036C00083570405B3E79701C207C1832318F404A5
:1036D0008347340593F70702D5C383473405A18B8D
:1036E000EDFF9935AA873ECE8135F247E30DF5FE11
:1036F00083570405B3E757012318F40483473405BF
:10370000A18BEDDF03570405834724053377EC00D5
:10371000B307FC023E97B2471D8FC24763D5E7004F
:10372000D247634AF706636A3B079386190093F909
:10373000F60FE24693171700B3C7D7026355E02888
:10374000850723809D002380AD01B3C76703010077
:1037500001000357C402BA97C207C1832316F402BB
:10376000CDB523809D002380AD010100010083477A
:10377000340593E70702A309F40401B723809D00F1
:103780002380AD01010001008347340593E7070260
:10379000A309F40435BFE38A09F8B71700401307FB
:1037A00070052380E704130780FA2380E7040100F3
:1037B000010003C7370513F6FB0F93057005137758
:1037C000870FA389E70403C73705130580FA518FD4
:1037D000A389E70483C63705138737059D8A639657
:1037E000761F930670052380D704930680FA238002
:1037F000D7040100010083460700130680FA93F600
:10380000F60D2300D7008346070093E60602230047
:10381000D70003D707059166558F2398E70403D790
:103820000705A166558F2398E70493067005B7171F
:10383000004003C73705137707026304071AB71759
:10384000004083C6370513873705A18AFDDA930642
:1038500070052380D704930680FA2380D7040100E3
:10386000010083460700130680FA93F6F60D230045
:10387000D7008346070093E606022300D70003D74C
:1038800007059166558F2398E70403D70705A166BE
:10389000558F2398E70493067005B717004003C7B8
:1038A000370513770702630B071437170040834768
:1038B0003705A18BEDFF8D392A84BD31E30F85FEDD
:1038C00037170040835707059166D58F2318F704F3
:1038D000B717004003C7370593863705218B7DDB7B
:1038E000130770052380E704130780FA2380E70499
:1038F0000100010003C706001377F70D2380E600DF
:1039000083D6070503C727059167FD17FD8EB3878B
:10391000E70237470F0013070724334AEA02BE962F
:103920008567938707FAB397770113070008B38772
:103930004703130A0010B3C74703130A803EB38737
:103940004703B3C7E7020547B31B770193DB3B404F
:103950003D67130707A633892B03930B60559D8E94
:103960009307800C330979033349E902B387F602E0
:10397000B3C727036351D00A85070947930670052B
:10398000B3C7E702371700402300D704930680FA35
:103990002300D7049607010001008356C702F640B2
:1039A0006644B697C207C1832316F702D644464938
:1039B000B649264A964A064BF25B625CD25C425D8F
:1039C000B25D25618280FD17ADBB2380B7042380E3
:1039D000A7040100010003C73705518FA389E7043D
:1039E000D5BB2380D7042380C7040100010003C78F
:1039F000370513670702A389E70425BD2380D70491
:103A00002380C7040100010003C7370513670702BD
:103A1000A389E70469B5FD178DB7914763EEB70237
:103A200017A70200130787498A05BA959C41BA97E0
:103A30008287B717004003A7470B1345F5FF698F2F
:103A400023AAE70A03A7070B698F23A8E70A03A79E
:103A5000070A798D23A0A70A8280B717004083A6A2
:103A6000470B1347F5FFF98E23AAD70A83A6070B46
:103A7000558D23A8A70A83A6070A758F23A0E70AF6
:103A80008280B717004003A7470B498F23AAE70A94
:103A900003A7070B1345F5FF45BFB717004083A6E3
:103AA000470B1347F5FF758F23AAE70A03A7070AF9
:103AB000598D4DB7B717004003A7470B498FEDB796
:103AC000914763EEB70217A70200130767408A0504
:103AD000BA959C41BA978287B717004003A7470D54
:103AE0001345F5FF698F23AAE70C03A7070D698F1C
:103AF00023A8E70C03A7070C798D23A0A70C8280CD
:103B0000B717004083A6470D1347F5FFF98E23AA88
:103B1000D70C83A6070D558D23A8A70C83A6070CE9
:103B2000758F23A0E70C8280B717004003A7470DCD
:103B3000498F23AAE70C03A7070D1345F5FF45BFDF
:103B4000B717004083A6470D1347F5FF758F23AACB
:103B5000E70C03A7070C598D4DB7B717004003A713
:103B6000470D498FEDB7B717004003D7870109C547
:103B7000D98D239CB700828093C5F5FFF98DD5BF01
:103B80009D4763E3A70217A702001307A7350A059D
:103B90003A951C41BA9737570040828783472700E0
:103BA00093F7070F2301F70082808347270093F7DD
:103BB000070F93E71700FDB78347270093F7070F19
:103BC00093E74700C5B78347270093F7070F93E7AD
:103BD0005700C9BF8347270093F7070F93E7870074
:103BE000D1B78347270093F7070F93E797005DBF8F
:103BF0008347270093F7070F93E7C70065B783470D
:103C0000270093F7070F93E7D70069BF99EAB757E3
:103C1000004003C707001345F5FF798D2380A700F7
:103C200082803757004005CE83471700C98FA30015
:103C3000F70037570040814711072146B356F5403A
:103C4000858A89C6B386E7002380B6008507E39797
:103C5000C7FEB757004003C70700598DC1B7834659
:103C600017009347F5FFF58FD9B7411122C406C657
:103C70003714004026C24AC0034724028357040277
:103C80001377F70FC207C1831DED9306700593F7F5
:103C9000F79F2300D4044207930680FAC2074183AA
:103CA000C1832300D404010001001377F707230127
:103CB000E4022310F40223000404B240224492449C
:103CC00002494101828013097005230024059304F1
:103CD00080FA1367070893E7074023009404010064
:103CE00001002301E4022310F402294597C0FF1FBD
:103CF000E780005D230024052300940401000100F7
:103D00008357040293E707206DB7B717004003D528
:103D10008700420541819377050491EB9377F50184
:103D20003755E801130505803345F5028280937706
:103D3000050C130700046397E7009377F5013745F7
:103D40009C1CCDB72165130505D0828037E700E0C4
:103D50001C435443A183E206D58F1CC1FD57232089
:103D6000F7182322F7188280B7F700E08847CC477E
:103D70008280B717004083C7670493F7F70F13E7F4
:103D8000470019E113F7B70FB71700409306700506
:103D90002380D704930680FA2380D7040100010012
:103DA0002383E704238007048280B717004083C77A
:103DB000670493F7F70F13E7270019E113F7D70FFD
:103DC000B7170040930670052380D704930680FA46
:103DD0002380D704010001002383E7042380070424
:103DE0008280B7170040130770052380E70413078C
:103DF00080FA2380E7040100010003C7670413670A
:103E000007012383E7042380070482808147373733
:103E10000040A14663C4C700328582800345B74095
:103E2000E38EA6FE3385F5000345050085072304D0
:103E3000A740CDB7B7270040C8C709472380E70090
:103E400011472380E7008280411122C406C62A84DC
:103E50006D3D2947B307E502B2408D83B3D7870292
:103E600022449507B3D7E70237370040C207C18322
:103E70002316F74041018280716541111305052029
:103E800006C6D937B7370040130770F82381E740DB
:103E90000D47A381E74013070004A380E7400547CF
:103EA0002387E740B2404101828037370040834793
:103EB00027401A0593F7F703C98F93F7F70F2301EC
:103EC000F7408280B737004003C7174019C9D98D22
:103ED000A380B74003C70740136787002380E740EC
:103EE000828093C5F5FFF98DA380B740828081471A
:103EF000B736004003C7A6401396070141821377E7
:103F0000F70F19E33285828003C686403307F50038
:103F100085072300C700F9BF411122C406C603C7A5
:103F2000050089470544631DF702D84129448347AA
:103F3000170003470700A207D98FC207C1871307DD
:103F400010EE639FE700238DD186814793F6F60F2D
:103F5000938581AE1397070141836367D7020144BC
:103F600003C6A18709CE9387C1879C4389CBDC43D5
:103F700099C7938581AE01458297238D018622855D
:103F8000B2402244410182803307F6000345070016
:103F90003387F50085072300A7006DBF03C7050021
:103FA00089476313F706D841834717000347070083
:103FB000A207D98FC207C187130710EE6392E704E7
:103FC00032852390060003C6918719E2014582805D
:103FD00041112390C6009385019F06C697D0FF1F0D
:103FE000E780A094A38C01869387C1879C430145F9
:103FF00089C79C4399C382970145B24041018280A1
:104000002390060029458280239006000545828082
:10401000058909CD97E6FF1F9386061F4146914506
:1040200017E5FF1F1305451A6FC0207A01458280EE
:1040300009C523AEA186014582804545828051474E
:104040006360C70241111385019F06C6A38CC18618
:1040500097D0FF1FE780608DB2400145410182800B
:104060001305E00F8280CC41411106C6328503C69C
:10407000150083C5050022064D8E42068D654186DA
:10408000138875A2630C060F6348C804138845A201
:104090006306060B634AC800938535A26309B6061A
:1040A00023900600294679A0138855A26308060BC1
:1040B000938565A2E316B6FEF9451D4663ECE50659
:1040C0007D46198E63F3C7003E862390C600973560
:1040D00000209385A58189A8138895A26300060D09
:1040E000E34C06FD1388A5A2630A060D938505A57A
:1040F000E318B6FA99451D4663EEE502198E63F39F
:10410000C7003E862390C6009385818031A89D45D7
:104110001D4663E1E5022146198E63F3C7003E8622
:104120002390C60093850188BA9597C0FF1FE7804A
:10413000C07F0146B240328541018280C9451D469B
:10414000E3EAE5FE4D46198E63F3C7003E862390F1
:10415000C60097E5FF1F93856520F9B7F9451D4611
:10416000E3EAE5FC7D46198E63F3C7003E862390A3
:10417000C60097E5FF1F9385A51F7DB79D451D468A
:10418000E3EAE5FA2146198E63F3C7003E862390E1
:10419000C60097A502009385E5D779B7CD451D46A2
:1041A000E3EAE5F85146198E63F3C7003E86239093
:1041B000C60097A502009385A5D6BDB7B5451D4697
:1041C000E3EAE5F63946198E63F3C7003E8623908D
:1041D000C60097A502009385E5D2B9B797E6FF1F01
:1041E000938606174146CD4517E5FF1F1305450386
:1041F0006FC0A05D83C7850093F70702E9E701114F
:1042000006CE22CC26CA4AC84EC603C905000943B9
:104210002E888547631C690203A34500AA8932845E
:104220008347130003430300B684A207B3E7670084
:104230004163130E33FE6383C7031913638C670452
:104240000D681308289063870707A947F240624466
:10425000D2444249B2493E8505618280AD477DF72F
:104260005147B547E364D7FE0325C8005146A285F0
:1042700097C0FF1FE780606B9387C1889843814791
:1042800071D7184361D7CE862686A2854A850297C4
:1042900081476DBFAD475DFB5147B547E368D7FA2E
:1042A0000325C8005146A28597C0FF1FE780E0673D
:1042B0001549D9B76244F240D2444249B2498547D0
:1042C00005616FA05002A1473E85828079E34111CC
:1042D0004AC006C622C426C22A8903C5050009476A
:1042E0006315E50A3684D4413285AE8403C71600CF
:1042F00083C606002207558FC166138646FE6300FB
:10430000C702938766FE6305F7048D160145631A9D
:10431000D706B2402244924402494101828051476B
:104320003E866373F7005146CC442310C400420616
:10433000418297C0FF1FE780405F03560400CC44D2
:1043400017A50200130505C0EF3020310145D1B794
:10435000CC4503C681882310C400238CC11897C0A4
:10436000FF1FE780805CCA8517A50200130545BEC4
:10437000EF30E0289305000803C54182EF40107A32
:10438000F1B723100400294569B7239006000545BD
:1043900049B72D45828041677917630CE5024111C9
:1043A00022C406C685472A84639AF50022852244E2
:1043B000B2409385C1C041016FC0004C89476396EC
:1043C000F5008545EFE0E07E75D1B2402244410121
:1043D00082808280411122C42A8441659385C1C0B4
:1043E0007D1506C6EFC04049170500001305E5FA24
:1043F0000588EFE0407305C02244B24097E6FF1FF6
:10440000938606014146A14517E5FF1F130545F8B0
:1044100041016FC0803BB24022440145410182808E
:1044200009C523A6A18801458280454582804111A6
:1044300022C406C626C28D472E84B2856303F504C6
:1044400095476302F50689476317F5025147E1472F
:104450006313E4025146138501BE97C0FF1FE78036
:10446000C04C5146938501BE17A502001305C5AC8B
:10447000EF30A01E8147B240224492443E85410164
:1044800082805147E147E36887FE938441BF5146EC
:104490002685269497C0FF1FE7802049230004004B
:1044A000238C0118C1BF5147E147E36687FC938421
:1044B000C1C12685514697C0FF1FE780004723846E
:1044C0008188238C0118269417080000130848E0FF
:1044D0009307F00F214797E6FF1F938666EB01468F
:1044E000A685138541C323000400EFB0A04759B748
:1044F000411122C42E849385C1C026C206C6AA8457
:10450000EFA02059058915C197E7FF1F938747E85A
:1045100083D7A705A285B2402310F4002244268544
:104520009244014641016FB0A033B240224492440C
:1045300049454101828011456FF08F80411193966A
:104540002500AA852D4506C697C0FF1FE7804007B6
:10455000B240014541018280411126C29394250059
:1045600022C44AC02A843289A686AA8501462545E6
:1045700006C697C0FF1FE780A004A6864A86A285CC
:10458000294597C0FF1FE780A003B2402244924410
:104590000249014541018280011122CC06CE371427
:1045A000004026CA4AC84EC652C483447405034A12
:1045B000B4058349840503499405EFE09FD98347F7
:1045C000A40593F4F40F137AFA0F93E71700230D61
:1045D000F40493F9F90F1379F90FB717004003C7E3
:1045E000A705058B6DFF03D5C705A38D4705238C54
:1045F0003705A38C2705A38B9704F2406244D2446D
:104600004249B249224A05618280411193970501CE
:1046100022C406C6C1872E8463DD0700EF40100761
:1046200019C1EF40807F2165218DB24022444101B4
:10463000828093F7150013C51500E5FB93972501BC
:1046400063D00702EFA0511EFD3537F602001306B6
:1046500006E0896503C50109EF40905E0965E9B789
:10466000939715010145E3D207FC17A50200130536
:10467000E593EF70A25A13060064916503C5010922
:10468000EF40105C11654DB71D71494697A50200BA
:104690009385458D17B50200130585AD86CE97C06D
:1046A000FF1FE780803101E917A502001305C58CC3
:1046B000EF70C25601A0B7F600E0795798CAFD57CF
:1046C000DCCA0567B7E700E023A0E7101306F00295
:1046D00090C223A0E718010001001306C003814522
:1046E000480897C0FF1FE780C02797F7FF1F9387F1
:1046F000671F3ECA8D67231CF1009307B00F23127A
:10470000F102BD47A301F10285472303F102B5473A
:104710002304F102A167938707E03ECE97070000CC
:10472000938707E2BEC497070000938727E3BEC6BE
:104730008567938727D02315F10297F7FFFF9387AB
:10474000E7623EDAB7F5070097070000938707E5B1
:104750003EDE814697070000938727DE7000E10563
:104760001945BEC097C0FF1FE78080E55808814704
:10477000994670003E960346060085070507A30C80
:10478000C700E398D7FED24791C7035781018567D9
:104790006373F70001A04808EF502017AA8501C9EC
:1047A000179502001305857EEF70423501A0F64093
:1047B00025618280411117050000130545E506C6F5
:1047C00022C4EF50C010138401092300A40029283B
:1047D000034504002244B24037F60200130606E007
:1047E000896541016F40D045411106C6B7170040A9
:1047F000130670052380C704930680FA2380D7042C
:104800000100010003C7F7021377A70FA387E70290
:104810002380C7042380D7040100010003C7F702E7
:1048200013672700A387E7022380070429331305B2
:10483000407E81470147814605468545EFE0FFB54B
:10484000B240014541016F50803F4111054585450A
:1048500006C6EF10C018B240179502001305457543
:1048600041016F20D059411122C426C24AC006C658
:10487000AA842E8932840100EF20A03D01E90100C5
:10488000B240224492440249410182801305E00A69
:10489000EF204063EF20805811E5EF200044010035
:1048A0000145F9BF13558900EF20C061EF20005783
:1048B0001375F90FEF200061EF2040561309F00F38
:1048C0007D141374F40F631C2401EF20004129456B
:1048D00097C0FF1FE780A09F0100054555B703C59E
:1048E00004008504EF20005EEF204053D1BF930702
:1048F00005FFC207C1831307E03E6374F70001455B
:104900008280011122CC26CA4EC606CE4AC89377B1
:10491000F5002A84AE89B2849DC341493309F94028
:104920001379F90F637FC900AA854A864E85253F12
:1049300031C54A9442044180CA99B38424413D4917
:104940002DA0AA851376F60F4E85313F3335A00092
:104950003DA0637F99004146A2854E85293719CD38
:10496000410442044180C109C114E5F4054501A890
:1049700013F6F40FA2854E85FD356DF90145F24021
:104980006244D2444249B24905618280411122C445
:1049900026C24AC006C62A89AE8432840100EF20AE
:1049A000402B01E90100B2402244924402494101F6
:1049B00082801305E00AEF20E050EF20204611E549
:1049C000EF20A03101000145F9BF13558900EF2008
:1049D000604FEF20A0441375F90FEF20A04EEF2099
:1049E000E043EF2000271305F00AEF20A04DEF2051
:1049F000E042054911E4EF20402E0100054565B76E
:104A0000EF2080582380A40063192401EF20803A0E
:104A10007D14420485044180F1BFEF20E031CDBF19
:104A200001110D468545054506CEEF00307E054651
:104A300091450145EF00907D85450545EF00B07734
:104A40001305C01297C0FF1FE78080872C00214606
:104A500001452D3F2C001795020013056556214690
:104A6000EF20B03F03458100F2400D1513351500CE
:104A700005618280011105464C0006CE013F19C137
:104A800003454100F240056182802A86B305B040AB
:104A900017950200130545756F20703617950200B3
:104AA000130585566F20B035397106DE22DC26DA13
:104AB0004AD84ED68947630CF50095476303F5063F
:104AC000F2506254D2544259B25921618280D14786
:104AD000328463F3C7005144420441802286280097
:104AE00097C0FF1FE78060E41C10A297238407FE95
:104AF000814413894133F959E3F484FC3C00B385C4
:104B000097004A85EF30A0266319350117A50200EA
:104B100013054583EF20B02E65B7850493F4F40F99
:104B2000E1BFD147328463F3C7005144420441805E
:104B30002286280097C0FF1FE78020DF1C10A29765
:104B4000238407FE814413894133F95963EB8400C0
:104B500022862C00179502001305C57FEF20F02F49
:104B600085B73C00B38597004A85EF304020E30FBE
:104B700035F9850493F4F40FD1BF411122C406C660
:104B80002E8497E5FF1F83D5858F6395A50497E74E
:104B9000FF1F2398C78E17950200130525632286F1
:104BA00097E7FF1F239E878C97E7FF1F239CD78CD7
:104BB000EF20F024B147630FF4002244B2400966AD
:104BC00017E5FF1F0345858B13060690A14541019C
:104BD0006F401007B2402244410182800111130648
:104BE000F10085451305503006CEA3070100EFF014
:104BF0005167179502001305E54FEF205020F24052
:104C00000561828001118547A307F1009387418EDA
:104C10009C4306CE81E7EF30000211CD1306F10070
:104C2000854513055030EFF0D16317950200130549
:104C3000A54BEF20D01CF24005618280397122DC47
:104C40001384C1461C444AD817E9FF1F1309898100
:104C500013D787001377F70F93F7F70F9796020094
:104C60009386863B179602001306C63BD1454A85BC
:104C700006DE26DAEF60727E144058401796020076
:104C80001306063B9305000217D5FF1F1305456E5B
:104C9000EF60B27C1705000013056568EF403043F4
:104CA000B147938441822314F100231EF100238035
:104CB000A400893F17D6FF1F1306067DA5451305DF
:104CC0007030EFF0115A1C4017D6FF1F13064678BC
:104CD000C54513D78701A304E60013D707012305B1
:104CE000E6002306F60013D787005C40A305E60024
:104CF0001305603013D78701A306E60013D7070119
:104D00002307E60013D78700A307E6002308F60071
:104D1000EFF031553000894513051031EFF0715433
:104D20007008894513052031EFF0B1534A86D54507
:104D30000145EF9040499305000A0D45EF60301F93
:104D40009305000A1145EF60901E85457945EF6097
:104D5000101E85477008914513057040A302F100AD
:104D60002303F100A303F10002CE23040100EFE0CE
:104D7000B11C13065100854513050040EFE0D11B1F
:104D800013066100854513051040EFE0F11A30006D
:104D9000854513052040EFE0311A13067100854563
:104DA00013055040EFE051197D55EF90604F7D5550
:104DB000EFB07029EFF08FC27D55EFF06FA57D55F4
:104DC000EFF04FE18D4702C42304F10002CE91477A
:104DD0003000D1450945230EF10002C602C802CABF
:104DE00002CC02D002D202D402D6EFF04FE4700817
:104DF000D1450D45EFF0AFE317050000130525522F
:104E0000EF40F02C97D7FF1F938747677957238090
:104E1000A7002391E70023A207002394070013852E
:104E20000182EFF0EFDF13858189EFD0E172138506
:104E30008181EFF0EF9F03C504008545EF40004EF0
:104E4000F2506254D254425921618280011122CC25
:104E500006CE2AC6EF702200C947B246494463E332
:104E6000A7002A849307640017D7FF1F2304F76263
:104E70009387C1469C47179602001306A61AC94598
:104E800013D787001377F70F93F7F70F17D5FF1F87
:104E900013056560EF60725C930574006244F24034
:104EA000C20517D6FF1F1306E65EC18113057030D9
:104EB00005616FF0113BC17717D5FF1F0355255CC6
:104EC00089073E953335A000828083574500411104
:104ED00022C417D4FF1F0354845A1D8C333480001E
:104EE000A947B307F40217D4FF1F1304245906C6B9
:104EF00089453E9403450400F9572311F400231219
:104F000004002313040023140400EF4080740345BD
:104F100004009145EF40E073F531713F19E90D450B
:104F2000EF2020652244B2408565014541016F00B4
:104F300090282244B240054541016F2080633D899D
:104F40007D15954763ECA722179702001307070901
:104F50000A053A951C41411122C406C626C2BA97D9
:104F60002E848287179502001305C529EF2020693A
:104F70002244B24092440D4541016F20805F83C7B7
:104F8000250019476396E7022E8581378345640023
:104F90001795020013050528EF206066179502009B
:104FA000130505292244B240924441016F20206537
:104FB0000D47179502001305A528E385E7FEB240CB
:104FC000224492444101828003C725009547E3189B
:104FD000F7FE179502001305A527EF2040628565AF
:104FE0000145EF00D01FC16797D4FF1F83D4244928
:104FF000F917639AF4168145179502001305052FDA
:10500000EF20E05F8357A40013060064894517D79B
:10501000FF1F2316F7468357E40017D5FF1F0345EC
:10502000E54517D7FF1F231DF7448357040117D702
:10503000FF1F2318F7448357240117D7FF1F23139B
:10504000F744EF40E03F096613060690A14517D5E7
:10505000FF1F0345A542EF40A03E056613060696D6
:10506000C14517D5FF1F03456541EF40603D1166FF
:10507000130606E8914517D5FF1F03452540EF406D
:10508000203C0356E4008355A40017950200130545
:10509000A527EF20C05617D6FF1F0356463E814571
:1050A0001795020013058527EF20605597D7FF1F3E
:1050B00083D7E73C63849700094539A81795020018
:1050C0001305051AEF20A053179502001305C5011B
:1050D000EF20E052053E0545EF20A049EF30D02FEC
:1050E000EF3090382244B240924441016F30E05397
:1050F00003C725008D471795020013056517E310B8
:10510000F7EC4DB583C5250091476397F5001795DA
:1051100002001305A51779B599476390F50222851A
:105120006D3383456400179502001305A50E2244D4
:10513000B240924441016F20804C9547639BF5003B
:10514000834714001795020013050516E38C07E446
:105150007DBF179502001305E515D1BF1795020015
:105160001305851681B50355A400EFF0B1401795DE
:10517000020013056516EF2080488DB7828083C733
:10518000518BB5EF797122D42E842286AA856800CE
:1051900026D206D602C602C802CA02CC02CEEF60F0
:1051A000C272C16797D4FF1F83D4642DF91763823D
:1051B000F404014781462286ED45268523138100AC
:1051C000EF90C045035661006C002AC497B0FF1FE2
:1051D000E780A0754C002685EFF08FB119C9ED4529
:1051E0004800EF90605B938541DB03C54119EF20D8
:1051F000F067B250225492540545456182800145C2
:105200008280C17717D5FF1F0355652789073E9513
:105210003335A0008280C17717D5FF1F035525269F
:1052200089073E953335A0008280C17717D5FF1FCF
:105230000355852589073E953335A0008280971751
:1052400000209387276A83C7070013F727000DE71D
:105250001306803E3305C5021306102793E7270087
:10526000171700202300F768930500023346C50294
:1052700003C541826F40C01C828001114EC6AA89BD
:105280001385413326CA06CE22CC4AC852C4EF2029
:10529000B02D9374F50F9DC40144138A818B13893B
:1052A0004133D2854A85EF20D0334A85EF20103133
:1052B0000504CE8503C5818B1374F40FEF10405E97
:1052C000E39184FEF2406244D2444249B249224A08
:1052D00005618280411106C63D3F19C10545713FF8
:1052E000A93709C5B2400945410141BFB24041015A
:1052F000828003C5518B82802E86AA8501456FE08E
:105300001FD401112306A1008945680006CEA3061B
:105310000100DD37F240056182800111939705019C
:1053200022CC06CE26CA4AC84EC6C1872E8463D672
:10533000070603C54182EF307035AA840DCD83473F
:1053400005001307000B638BE7021307000D639141
:10535000E70203472500C547631CF70003466500C5
:105360008345750017950200130545CDEF202029D0
:105370002685EF30902AA1673D8C3DA80347450064
:105380009307F007E316F7FE835585001795020093
:10539000130585CCEF20A026E1BF93F715008DC73C
:1053A00017D6FF1F1306060A938541C403C5418221
:1053B000EFF0213A134414002285F2406244D244B3
:1053C0004249B249056182809397350163D6070649
:1053D00083C5118917950200130545C9EF202022C6
:1053E00041655D15EFF00FE993770502AA8481C747
:1053F00085472389F18893F7040181C78547A389ED
:10540000F18893F7840081C78547238AF18893F751
:10541000040481C785472388F18893F7240089C74E
:1054200041656115EFF00FE5858889C44165651513
:10543000EFF04FE4856789B793972501096963D633
:1054400007069384418A90409389018A83A70900C3
:105450009315C600179502001305C5C2BE95EF202F
:10546000001A9C4083A509008566B2070146BE95D7
:10547000054597B0FF1FE780A0141375F50F09C508
:105480004935334424010DBF9C40850723A2F18A8E
:105490001387818A1843E3E1E7F2179502001305A9
:1054A000A5BFEF20C0150145E1BF93F70502638258
:1054B000070C138541DBEF20503D2A8999333DC904
:1054C000971400209384044283C7040013F7170045
:1054D00035E3F59B630C0904D1474A8563F3270143
:1054E0005145138901C542054181138641DBCA85B7
:1054F000238AA118EF20B02E83C54119B307B90044
:105500002380070083C704004A8593E71700171715
:1055100000202309F73CA53103C7411983D7414A2D
:10552000BA972392F14A83C70400F99B171700200A
:10553000230AF73A138541DBEF203035AA84D131B5
:1055400009CD89CC130600029305000203C54182F0
:10555000EF30106F1344040285B5EDFC971700205F
:1055600083C7473893F7D70F17170020230CF73658
:10557000D5B793F70508A1CB83C58119179502000C
:105580001305C5B2EF20A00703C7811983D7414A8D
:10559000BA972392F14A9717002083C7A73493F74D
:1055A000E70F130600029305000203C54182171797
:1055B00000202309F732EF30B0681945EF3080053D
:1055C00013440408D5BB93F7050485CB1795020057
:1055D000130505AFEF20A002C16717D5FF1F0355C4
:1055E00005EAF9176304F500EFF0C178EFF00FDF7B
:1055F00013440404EF102052C1B397D7FF1F83C791
:10560000E7E7631DF50813F7250011CB13060064C7
:105610008945EF30F0627D391344240071BB13F7E4
:10562000850019CF1307400681463146B14517D58D
:10563000FF1F0355C5E4EFF0210B13448400ADBBFD
:1056400093F705018DC7014789460946814517D55E
:10565000FF1F0355C5E2EFF02174AA8517950200DC
:10566000130545A7EF10B07913440401B1B393F7C4
:1056700045006382071017D5FF1F035545E0EFF083
:10568000216F1166130606E8914517D5FF1F0345E4
:10569000E5DEEF30F05A1344440039BB97D7FF1FC3
:1056A00083C767DE6315F50613F7250011C71306D8
:1056B000006489453E85B1BF13F7850019CB1307F8
:1056C000400681463146B14517D5FF1F0355C5DB5E
:1056D0009DB793F7050191CB01478946094681455E
:1056E00017D5FF1F035545DABDB793F74500C1C76E
:1056F00017D5FF1F035545D9EFF0816711661306D3
:1057000006E8914517D5FF1F0345E5D759B797D749
:10571000FF1F83C7E7D76310F50613F7250041FB8A
:1057200013F7850019CB1307400681463146B14572
:1057300017D5FF1F0355E5D5FDBD93F7050191CBA7
:10574000014789460946814517D5FF1F035565D492
:1057500019B793F7450085C317D5FF1F035565D3C8
:10576000EFF001611166130606E8914517D5FF1F9A
:10577000034505D239BF014481B11305E00F6FF035
:105780005FB8411122C491462A841386011A9D658F
:105790002D4506C697B0FF1FE78080E293060010F4
:1057A00001469D65254597B0FF1FE78060E11386A0
:1057B000011A230086002244B24091469D65294586
:1057C000410117B3FF1F6700A3DF01456FE00FD84A
:1057D000797183C7810906D622D493C70708114778
:1057E000636BF718179702001307C7808A07BA97E9
:1057F0009C43BA978287854703C69109A38AF18A99
:1058000083D5A10923A8C18AB76703009205BE9575
:10581000179502001305C58E23A6B18AEF10305EDE
:105820009387C18A8C4383D6018B1386C1090945AE
:1058300097B0FF1FE780C0D81374F50F19C41795F0
:1058400002001305658DEF10905B2285EFF07FABB2
:10585000B25022544561828083D5A1098547A38A2D
:10586000F18A9205B7670300BE9503D6C109179563
:1058700002001305258D23A6B18A23A4C18A23A083
:10588000B18A23A2018A238A018AEF105057938795
:10589000018A9443B777030063EFF6009387818A08
:1058A0009C43370710007D17BA97B207B69737D7D2
:1058B00006006375F7001305F00F49BF896503C53E
:1058C0004182EF30B02569B703C6910923A8C18A88
:1058D00083D5A109B76703009205BE95179502000D
:1058E0001305858823A6B18AEF1070519387018B29
:1058F00094439387C18A8C431386C1090D4597B0A1
:10590000FF1FE780E0CB1374F50F19C41795020051
:1059100013054587EF10B04E03C5418B418D238A97
:10592000A18A2DB7179502001305C588EF10304DD9
:10593000A38A018A593D0D45A935294597B0FF1F16
:10594000E780E09897B0FF1FE780608F11B7179549
:1059500002001305E586EF10904AB7076003890738
:105960003EC6D145B707108368003EC8230A010030
:10597000EFF09F98F1BD1135E1BD4111138581090B
:1059800006C697B0FF1FE78040FAB240410189B5D3
:10599000AA8709E9B717004003A5470AE98D3335FF
:1059A000B000828005470545E39DE7FEB71700403C
:1059B00003A5470CE5B709E9371700408327C70A55
:1059C000DD8D2326B70A828085476319F500B71756
:1059D000004003A7C70CD98D23A6B70C828009E924
:1059E000371700408327870ADD8D2324B70A82807A
:1059F00085476319F500B717004003A7870CD98DB9
:105A000023A4B70C828011C2D9BF75B7AA872E858F
:105A1000B28599E36FE06F8005476394E7006FE01C
:105A20002F8A82808280A38C018A8280411106C6DF
:105A3000EF20807D17950200130505C2EF10303C62
:105A400029458545EF10800FB24001454101828014
:105A500001117000978502009385855006CEEF6096
:105A6000222B0DC1B24517950200130525D5EF1065
:105A700010390355C1008545EF10400C0145F24037
:105A8000056182800545E5BF01117C0038005400A6
:105A90000A86979502009385E5C006CEEF604227FF
:105AA00091476311F5061246824585462247B39613
:105AB000C6003715004095E91DE38327C50AD58F39
:105AC0002326F50AB24717950200130565BE938594
:105AD0001504EF10D0320145F24005618280832722
:105AE000850AD58F2324F50AF1BF19E78327C50C52
:105AF000D58F2326F50CF9B78327850CD58F232462
:105B0000F50CC9B70545C9BF0111700097850200A2
:105B10009385054506CEEF60A21F8547631CF500FF
:105B2000B24705456345F500EF20006D0145F240A1
:105B3000056182800545E5BF01117400300097952D
:105B400002009385658606CE22CC26CAEF60421CF1
:105B50008947631DF5042244B2440D4697D5FF1FC3
:105B60009385E5B017D5FF1F1305259697D7FF1F1F
:105B7000238F87AE97D7FF1FA38B97AE97D7FF1FB3
:105B8000238807AEEF507254179502001305458223
:105B900013F6F40F9375F40FEF107026EF20C06525
:105BA0000145F2406244D244056182800545D5BF7B
:105BB00001117000978502009385853A06CEEF604B
:105BC000221505C5B245178502001305257B97D719
:105BD000FF1F2380B7AA93F5F50FEF105022EF2097
:105BE000A0610145F240056182800545E5BF0111D4
:105BF0007000978502009385A53606CEEF604211AE
:105C000015C5B24717D7FF1F231BF79CEF20C05EB7
:105C1000178502001305C57497D5FF1F83D5259CF2
:105C2000EF10D02C0145F240056182800545E5BFAB
:105C300001117000978502009385853206CEEF60D2
:105C4000220D15C5B245178502001305257897D793
:105C5000FF1F239DB79693D7050117D7FF1F231862
:105C6000F796EF10B0280145F240056182800545A6
:105C7000E5BF011174003000978502009385C5725D
:105C800006CEEF60E2088947631CF506A24717D7E6
:105C9000FF1F231FF792C18317D7FF1F231BF79204
:105CA000B24717D7FF1F2317F792C18317D7FF1FDC
:105CB0002313F792EF20405497D7FF1F83D76791A4
:105CC000C20797D5FF1F83D5A590DD8D17850200EC
:105CD00013054570EF10902197D7FF1F83D7A78F2B
:105CE00097D5FF1F83D5058FC207178502001305BF
:105CF000E56EDD8DEF10901F0145F2400561828059
:105D00000545E5BF411106C622C4EF20F06C17D44B
:105D1000FF1F1304648BEF205011EF306000EF3051
:105D2000E0028357E40A0356C40A9795020093855C
:105D30006591C2075D8E1305F00FEF2030630346B7
:105D4000A40A1305F00F9795020093856590EF2044
:105D5000F061B2402244014541018280411106C6F2
:105D6000EF206062B2400145410182800111700064
:105D7000978502009385C51E06CEEF5072791DC52A
:105D8000B245179502001305A5A4EF105007B247BE
:105D900017D7FF1F231CF780EF2040532945854567
:105DA000EF00D0590145F240056182800545E5BF0D
:105DB00001113000979502009385459206CE22CCC2
:105DC000EF50127585476307F5000545F2406244C0
:105DD000056182802A842800EF60E2079947E31674
:105DE000F5FE2800EF204075E31185FE2800EF2026
:105DF000C05385452945EF007054179502001305DF
:105E0000658EEF10C07F0145D1B7011170009785F5
:105E100002009385E51406CEEF50926F21C1324700
:105E200089679387E76D9306E7FC054563E5D7022D
:105E3000131507014181EF20406BEF20606AAA85AE
:105E4000178502001305857AEF10607B294585458B
:105E5000EF00D04E0145F240056182800545E5BF67
:105E600079717008978502009385850F06D622D434
:105E7000EF50126A39CDF247314705456367F704A1
:105E8000139507014181EF20A067EF20C0662AC665
:105E9000EF20606617940200130484E30E05229538
:105EA000104132C4EF2020650E052A948346440039
:105EB0002246B245179502001305058EEF10207497
:105EC00029458545EF0090470145B2502254456170
:105ED00082800545DDBF0111700097850200938522
:105EE000250806CEEF50D2628547631CF502B24703
:105EF000094705456344F70213F5F70FEF20205CCF
:105F0000EF20405BAA851795020013052581EF104D
:105F1000006F29458545EF0070420145F24005615B
:105F200082800545E5BF01117400300097850200AD
:105F30009385854706CEEF50B25D8947631EF50213
:105F400085472945238DF18CEF20C06C2D45EF202E
:105F5000606C3145EF20006CB2452245EF10E03A0D
:105F60003246A2451785020013054579EF102069D6
:105F70000145F240056182800545E5BF01117400CD
:105F80003000978502009385254206CEEF50525887
:105F90008947631FF50285472945238DF18CEF2042
:105FA00060672D45EF2000673145EF20A0668345EF
:105FB000C1002245EF10E0303246A24517850200AD
:105FC0001305C574EF10A0630145F240056182809E
:105FD0000545E5BF011178003400500097850200A7
:105FE0009385C56806CE22CCEF5092528D47631C34
:105FF000F5042245924705443315A40085458DEFED
:10600000EFD0BFA1B717004003A7470AA247224617
:1060100092453314F4008546178502001305C565C3
:10602000618FB396C60093851504EF10405D01455E
:10603000F240624405618280EFD09FA8B71700400C
:1060400003A7470CE1B70545E5B701117000978537
:1060500002009385E5F022CC06CEEF50724B8547C7
:1060600005446315F502B2452A841785020013051D
:10607000656EEF10C058B24799EF3717004083574D
:10608000070293E707082310F70201442285F24034
:10609000624405618280639D870037170040835703
:1060A0000702C207C18393F7F7F7C207C183E1BFB5
:1060B0000947639CE700178502001305256AEF1066
:1060C00000540545EFD07FBAC9B70D47639AE70082
:1060D000178502001305C569EF1060520145DDB751
:1060E0001147639FE700178502001305A569EF10AC
:1060F00000519305000403C54182EF30202271B79F
:1061000015470144E394E7F889457945EF10F03BE2
:10611000B5BF4111178502001305452506C6EF10CE
:10612000004E05458D45EF10503AB2400145410102
:1061300082800111700097850200938565E206CE8A
:10614000EF50123D21C5B245178502001305052405
:1061500097C7FF1F2392B748C205C181EF100059AE
:106160008567938787BB97C5FF1F83D5E546B385B2
:10617000F5022545170600001306068BEF2020497F
:10618000EF2080070145F240056182800545E5BFAB
:106190000111700097850200938585DC06CEEF50D3
:1061A000323715C5B245178502001305A51E97C7DE
:1061B000FF1F2384B74293F5F50FEF104044EF2003
:1061C000B03BEF2060030145F24005618280054548
:1061D000E5BF0111700097850200938565D806CE52
:1061E000EF5012338547631EF502B2470947054554
:1061F0006366F70213F5F70FEF000068B2471785E3
:106200000200130525401397270097C7FF1F9387A8
:10621000A729BA978C43EF10803E0145F2400561F3
:1062200082800545E5BF01117000978502009385C6
:1062300025D306CEEF50D22D854705476315F502CD
:106240003245FD7793878744AA979306004B05470D
:1062500063EBF6002D25B245178502001305C53BFB
:10626000EF10E0390147F2403A8505618280011163
:106270007000978502009385A5CE06CEEF50522977
:1062800005CD324789679387C76A9306C7F90545E5
:1062900063E1D702131507014181EF20A023EF200E
:1062A000C022AA85178502001305C553EF102035BB
:1062B0000145F240056182800545E5BF011170008E
:1062C000978502009385C5C906CEEF507224854795
:1062D0006316F5023245EF204024EF202023AA85E3
:1062E0001785020013054534EF10603129458545B7
:1062F000EF00D0040145F240056182800545E5BF0D
:1063000001111386011B978502009385253D06CE5A
:10631000EF50122085476317F5041385011BEF50DA
:1063200092339387011B3E95230005003E85EF10B5
:1063300070092AC6EF10F00B3246AA8517850200B5
:106340001305853FEF10A02B9707002083C78759BF
:1063500093E74700170700202306F7580145F2404E
:10636000056182800545E5BF01111386011B9785F4
:1063700002009385A53606CEEF5092198547631D1E
:10638000F5021385011BEF50122D9387011B3E95DB
:10639000230005003E85EF1070062AC6EF10F008B6
:1063A0003246AA851785020013050545EF10202502
:1063B0000145F240056182800545E5BF797126D22D
:1063C0004AD09784020093846402416922D44ECE5D
:1063D00052CC5AC806D656CA2A8A0144A6897D19C3
:1063E000754B8C402E852EC6EF50F226B245B37AFF
:1063F000250156865285EF5032271DE10E044E943A
:106400005C4033055A01829742054185B2502254BF
:1064100092540259F249624AD24A424B4561828003
:106420000504A104E31F64FB0545CDB70145828047
:10643000411122C42E84856526C28547AA8417F699
:10644000FFFF1306865E93858538354506C6A38C07
:10645000F18AEF20C01B22852244B2402686924456
:10646000978502009385050741016F202070411137
:1064700022C411462E84978502009385A5F626C274
:1064800006C6AA84EF50521E09EDA285138544006A
:106490003537A2852244B24092441375F50F41016D
:1064A00041BFB2402244924441018280238D018A3F
:1064B000A38D018A828003C7A18B9307170093F7EE
:1064C000F70F238DF18A41110A07938681C636970B
:1064D00006C608C31D476374F700238D018A83C76E
:1064E000B18B1D476365F7008507A38DF18A03C54E
:1064F000B18B938681C6814701476313F5023355FB
:10650000A702EF4022299787020093872731904303
:10651000D443EF20127BEF40021BB2404101828046
:106520009042850793F7F70F32979106F9B797C70F
:10653000FF1F938727F8884382801787020013077D
:10654000E7318147BA862D48035607002E96634EE1
:10655000C500035627000D8E6359C5001947B38740
:10656000E702B69703C54700828085071907E39DB8
:1065700007FD170500200345654B8280411106C6C3
:10658000EF40221A978702009387C7299043D4438C
:10659000EF30724197870200938747299043D44395
:1065A000EF3072402A86AE86EF20B271EF50A21211
:1065B000EF50A20797870200938747269043D44362
:1065C000EF203270EF40A209B24042054181410103
:1065D000828083C7F18B094705456380E702054741
:1065E0000145638CE7004111854506C6EFF04FBABF
:1065F000B24013351500410182808280411122C4CE
:1066000006C6EFC09FD72A84E93709C51304C4F42E
:10661000420441802285B2402244410182804111DE
:1066200006C6E93F239EA18A793542054181B937E3
:1066300097070020239DA73E83C7F18B89CB9387C3
:10664000618283D70700170700202312F73E83C714
:106650005182170500200355853D8D4581C7A382D2
:1066600001828145D93DB240970700202390A73C85
:1066700041018280411122C417C4FF1F130484E327
:106680001C4006C66383A70697C7FF1F23A4A7E283
:1066900097870200938707240A053E950C411785CA
:1066A00002001305E51FEF00907583C7A18D95EFDC
:1066B0001C4009476386E7020D47638AE7000547E8
:1066C0006395E70217C5FF1F1305F5DF29A017C55E
:1066D000FF1F130585DF2244B24041016F00F06EB9
:1066E00017C5FF1F130505DEFDB7B2402244410167
:1066F0008280411101468545014506C622C426C255
:10670000EFF0CFB00146930500040145EFF00FB064
:1067100089450145EFC0BFC1B71700402947238C09
:10672000E7041544978402009384C410EFC0FFC4AB
:106730007D14AA851374F40F2685EF00506C7DF448
:1067400009450D3FB240224485472380F18CA38246
:10675000F18292444101828083C7018C638C070AD5
:1067600083C7118C13871700A380E18C0D47B3F703
:10677000E702411106C691E35D3583C7E18B99E7D6
:106780008547238FF18AB24041018280238F018A9D
:10679000EFF03FE497C7FF1F83C747D285C3EFF0F1
:1067A0005FE375F10945F935EFF05FD097C7FF1F3B
:1067B000238607D0B24041016F200042EFF07FE115
:1067C00019C90D45453DEFF07FCE854717C7FF1F1F
:1067D0002306F7CEC5B7856717070020035727257F
:1067E000938687BB63EEE6009387418E9843854787
:1067F000E30BF7F8B2408945794541016F10E04C51
:106800009387B7E0054563F3E7000945B2404101CE
:106810006FF05FE682804111154506C62380018C2A
:10682000EF10505FB240014541016FF0BFE44111EC
:1068300006C6EFF0DFDE85450145EFF06F95933535
:106840001500170600200356861E17850200130543
:10685000E5FEEF00D05AEFF0DFD7814711E9056779
:106860009707002083D7A71C130717C8B3B7E70003
:10687000B2403E8541018280A38FA18A828023930A
:10688000A18283C7F18B81E78547A38FF18A82803C
:10689000B707EFBE37E700E0938707083CC7828061
:1068A000411126C29387C18C9384418C9C439840AC
:1068B00006C622C41D8F938781829C434AC063E829
:1068C000E70003D7818C9307F00363F9E700239473
:1068D000018C9C4023A6F18C2398018C83D6818C5B
:1068E00013871600420741832394E18C83D7018DDF
:1068F0001384C1CEA207A2962380A6005D8D420517
:1069000041812398A18C85679387A7D06316F502F0
:10691000894763F3E70222972E8923000700EF10CF
:10692000F03E0DE1CA851385C1CEEFF05FB423942C
:10693000018C9C4023A6F18CB2402244924402492F
:1069400041018280EF1070389387418D9C4363ED45
:10695000A70013062003A285170500201305850E46
:10696000EF50425323AA018C9377890095C3030704
:10697000040093071004631DF70003071400930736
:1069800040056317F700CA851385C1CEEFF03FAE0F
:1069900093773900C9DF79B7371700408327870A13
:1069A000411106C693E707202324F70A85451305FE
:1069B0000010EFD08F868D4513050020EFD0EF85B6
:1069C000EFD08FCB3715070013050580EFD0CFC769
:1069D0000D45EFD08FCD95450545EFD0AFCEB7E74C
:1069E00000E03707000823A0E71013060004938592
:1069F000C1D213858134A38D018CEF106041B24068
:106A000097070000938707EA23A2F13441018280AF
:106A1000371700408327C70A411106C693E70720AE
:106A20002326F70A814513050030EFC01FFFEFD082
:106A3000AFC4B7E700E03707000823A0E71801005C
:106A40000100B2408547A38DF18C41018280011184
:106A500022CC26CA06CE1384813493844134930514
:106A6000F1002285EF10E03E11E5F2406244D2448D
:106A7000056182809C400345F100A1458297C5B71E
:106A8000411106C6238C014697070020238C07E49A
:106A900097070020238A07E4013797850200938532
:106AA000256D17850200130565F8EF005035EF10CE
:106AB000702D13074006854613064006938581C84E
:106AC00013854133EF102028FD576318F500178513
:106AD00002001305A5E1EF009032EFF09FC1F92D00
